{"contracts/Lottery.sol":{"Raffle":{"abi":[{"inputs":[{"internalType":"address","name":"vrfCordinatorV2","type":"address"},{"internalType":"uint256","name":"entranceFee","type":"uint256"},{"internalType":"bytes32","name":"gasLane","type":"bytes32"},{"internalType":"uint64","name":"subscriptionId","type":"uint64"},{"internalType":"uint256","name":"interval","type":"uint256"},{"internalType":"uint32","name":"callbackGasLimit","type":"uint32"}],"stateMutability":"nonpayable","type":"constructor"},{"inputs":[{"internalType":"uint256","name":"currentBalance","type":"uint256"},{"internalType":"uint256","name":"numPlayers","type":"uint256"},{"internalType":"uint256","name":"raffleState","type":"uint256"}],"name":"Lottery_UpkeepNotNeeded","type":"error"},{"inputs":[],"name":"Lottery__NotEnoughETHEntered","type":"error"},{"inputs":[],"name":"Lottery__NotOpen","type":"error"},{"inputs":[],"name":"Lottery__TransferFailed","type":"error"},{"inputs":[{"internalType":"address","name":"have","type":"address"},{"internalType":"address","name":"want","type":"address"}],"name":"OnlyCoordinatorCanFulfill","type":"error"},{"anonymous":false,"inputs":[{"indexed":true,"internalType":"address","name":"player","type":"address"}],"name":"LotteryEnter","type":"event"},{"anonymous":false,"inputs":[{"indexed":true,"internalType":"address","name":"participant","type":"address"}],"name":"RaffleEnter","type":"event"},{"anonymous":false,"inputs":[{"indexed":true,"internalType":"uint256","name":"requestId","type":"uint256"}],"name":"RequestedRaffleWinner","type":"event"},{"anonymous":false,"inputs":[{"indexed":true,"internalType":"address","name":"winner","type":"address"}],"name":"WinnerPicked","type":"event"},{"inputs":[{"internalType":"bytes","name":"","type":"bytes"}],"name":"checkUpkeep","outputs":[{"internalType":"bool","name":"upkeepNeeded","type":"bool"},{"internalType":"bytes","name":"","type":"bytes"}],"stateMutability":"view","type":"function"},{"inputs":[],"name":"enterRaffle","outputs":[],"stateMutability":"payable","type":"function"},{"inputs":[],"name":"getEntranceFee","outputs":[{"internalType":"uint256","name":"","type":"uint256"}],"stateMutability":"view","type":"function"},{"inputs":[],"name":"getLatestTimeStamp","outputs":[{"internalType":"uint256","name":"","type":"uint256"}],"stateMutability":"view","type":"function"},{"inputs":[],"name":"getNumWords","outputs":[{"internalType":"uint256","name":"","type":"uint256"}],"stateMutability":"pure","type":"function"},{"inputs":[],"name":"getNumberOfplayers","outputs":[{"internalType":"uint256","name":"","type":"uint256"}],"stateMutability":"view","type":"function"},{"inputs":[{"internalType":"uint256","name":"index","type":"uint256"}],"name":"getPlayer","outputs":[{"internalType":"address","name":"","type":"address"}],"stateMutability":"view","type":"function"},{"inputs":[],"name":"getRaffleState","outputs":[{"internalType":"enum Raffle.RaffleState","name":"","type":"uint8"}],"stateMutability":"view","type":"function"},{"inputs":[],"name":"getRecentWinner","outputs":[{"internalType":"address","name":"","type":"address"}],"stateMutability":"view","type":"function"},{"inputs":[],"name":"getRequestConfimations","outputs":[{"internalType":"uint256","name":"","type":"uint256"}],"stateMutability":"pure","type":"function"},{"inputs":[{"internalType":"bytes","name":"","type":"bytes"}],"name":"performUpkeep","outputs":[],"stateMutability":"nonpayable","type":"function"},{"inputs":[{"internalType":"uint256","name":"requestId","type":"uint256"},{"internalType":"uint256[]","name":"randomWords","type":"uint256[]"}],"name":"rawFulfillRandomWords","outputs":[],"stateMutability":"nonpayable","type":"function"}],"devdoc":{"author":"Youthisguy","details":"This implements Chainlink VRF v2 and Chainlink Keepers","kind":"dev","methods":{"checkUpkeep(bytes)":{"details":"this is the function that the Chainlink keeper nodes call they look for the upkeepNeeded to return true the following should be true in order to return true 1. Our time interval should have passed 2. The lottery should have atleast one player, and some ETH 3. Our subscription should have atleast some LINK 4. The lottery should be in an \"open\" state"}},"title":"A sample Raffle Contract","version":1},"evm":{"bytecode":{"linkReferences":{},"object":"6101606040523480156200001257600080fd5b506040516200181738038062001817833981810160405281019062000038919062000294565b858073ffffffffffffffffffffffffffffffffffffffff1660808173ffffffffffffffffffffffffffffffffffffffff1681525050508460a081815250508573ffffffffffffffffffffffffffffffffffffffff1660c08173ffffffffffffffffffffffffffffffffffffffff16815250508360e081815250508267ffffffffffffffff166101008167ffffffffffffffff16815250508063ffffffff166101208163ffffffff16815250506000600160146101000a81548160ff021916908360018111156200010d576200010c62000330565b5b0217905550426002819055508161014081815250505050505050506200035f565b600080fd5b600073ffffffffffffffffffffffffffffffffffffffff82169050919050565b6000620001608262000133565b9050919050565b620001728162000153565b81146200017e57600080fd5b50565b600081519050620001928162000167565b92915050565b6000819050919050565b620001ad8162000198565b8114620001b957600080fd5b50565b600081519050620001cd81620001a2565b92915050565b6000819050919050565b620001e881620001d3565b8114620001f457600080fd5b50565b6000815190506200020881620001dd565b92915050565b600067ffffffffffffffff82169050919050565b6200022d816200020e565b81146200023957600080fd5b50565b6000815190506200024d8162000222565b92915050565b600063ffffffff82169050919050565b6200026e8162000253565b81146200027a57600080fd5b50565b6000815190506200028e8162000263565b92915050565b60008060008060008060c08789031215620002b457620002b36200012e565b5b6000620002c489828a0162000181565b9650506020620002d789828a01620001bc565b9550506040620002ea89828a01620001f7565b9450506060620002fd89828a016200023c565b93505060806200031089828a01620001bc565b92505060a06200032389828a016200027d565b9150509295509295509295565b7f4e487b7100000000000000000000000000000000000000000000000000000000600052602160045260246000fd5b60805160a05160c05160e05161010051610120516101405161144f620003c860003960006107ac015260006106790152600061065601526000610635015260006105f90152600081816102b401526103b10152600081816102f10152610345015261144f6000f3fe6080604052600436106100a75760003560e01c80634585e33b116100645780634585e33b1461018b578063473f1ddc146101b457806353a2c19a146101df5780636e04ff0d1461020a578063e55ae4e814610248578063ef277b7214610285576100a7565b806309bc33a7146100ac578063115cbaf5146100d75780631fe543e3146101025780632cfcc5391461012b578063320229eb146101355780633bc764db14610160575b600080fd5b3480156100b857600080fd5b506100c16102b0565b6040516100ce9190610b5b565b60405180910390f35b3480156100e357600080fd5b506100ec6102d8565b6040516100f99190610bed565b60405180910390f35b34801561010e57600080fd5b5061012960048036038101906101249190610da1565b6102ef565b005b6101336103af565b005b34801561014157600080fd5b5061014a61051e565b6040516101579190610b5b565b60405180910390f35b34801561016c57600080fd5b50610175610528565b6040516101829190610b5b565b60405180910390f35b34801561019757600080fd5b506101b260048036038101906101ad9190610e58565b610534565b005b3480156101c057600080fd5b506101c9610732565b6040516101d69190610ee6565b60405180910390f35b3480156101eb57600080fd5b506101f461075c565b6040516102019190610b5b565b60405180910390f35b34801561021657600080fd5b50610231600480360381019061022c9190610fb6565b610769565b60405161023f929190611099565b60405180910390f35b34801561025457600080fd5b5061026f600480360381019061026a91906110c9565b610816565b60405161027c9190610ee6565b60405180910390f35b34801561029157600080fd5b5061029a61085d565b6040516102a79190610b5b565b60405180910390f35b60007f0000000000000000000000000000000000000000000000000000000000000000905090565b6000600160149054906101000a900460ff16905090565b7f000000000000000000000000000000000000000000000000000000000000000073ffffffffffffffffffffffffffffffffffffffff163373ffffffffffffffffffffffffffffffffffffffff16146103a157337f00000000000000000000000000000000000000000000000000000000000000006040517f1cf993f40000000000000000000000000000000000000000000000000000000081526004016103989291906110f6565b60405180910390fd5b6103ab828261086a565b5050565b7f0000000000000000000000000000000000000000000000000000000000000000341015610409576040517fec269fd100000000000000000000000000000000000000000000000000000000815260040160405180910390fd5b6000600181111561041d5761041c610b76565b5b600160149054906101000a900460ff16600181111561043f5761043e610b76565b5b14610476576040517fe76be6fc00000000000000000000000000000000000000000000000000000000815260040160405180910390fd5b6000339080600181540180825580915050600190039060005260206000200160009091909190916101000a81548173ffffffffffffffffffffffffffffffffffffffff021916908373ffffffffffffffffffffffffffffffffffffffff1602179055503373ffffffffffffffffffffffffffffffffffffffff167f0805e1d667bddb8a95f0f09880cf94f403fb596ce79928d9f29b74203ba284d460405160405180910390a2565b6000600254905090565b60008080549050905090565b600061055c60405160200161054890611150565b604051602081830303815290604052610769565b509050806105cb5747600080549050600160149054906101000a900460ff16600181111561058d5761058c610b76565b5b6040517f6f118e900000000000000000000000000000000000000000000000000000000081526004016105c293929190611165565b60405180910390fd5b60018060146101000a81548160ff021916908360018111156105f0576105ef610b76565b5b021790555060007f000000000000000000000000000000000000000000000000000000000000000073ffffffffffffffffffffffffffffffffffffffff16635d3b1d307f00000000000000000000000000000000000000000000000000000000000000007f000000000000000000000000000000000000000000000000000000000000000060037f000000000000000000000000000000000000000000000000000000000000000060036040518663ffffffff1660e01b81526004016106ba95949392919061124f565b6020604051808303816000875af11580156106d9573d6000803e3d6000fd5b505050506040513d601f19601f820116820180604052508101906106fd91906112b7565b9050807fcd6e45c8998311cab7e9d4385596cac867e20a0587194b954fa3a731c93ce78b60405160405180910390a250505050565b6000600160009054906101000a900473ffffffffffffffffffffffffffffffffffffffff16905090565b6000600361ffff16905090565b600060606000600160149054906101000a900460ff16600181111561079157610790610b76565b5b600060018111156107a5576107a4610b76565b5b14905060007f0000000000000000000000000000000000000000000000000000000000000000600254426107d99190611313565b119050600080600080549050119050600080471190508380156107f95750825b80156108025750815b801561080b5750805b955050505050915091565b600080828154811061082b5761082a611347565b5b9060005260206000200160009054906101000a900473ffffffffffffffffffffffffffffffffffffffff169050919050565b6000600361ffff16905090565b600080805490508260008151811061088557610884611347565b5b602002602001015161089791906113a5565b905060008082815481106108ae576108ad611347565b5b9060005260206000200160009054906101000a900473ffffffffffffffffffffffffffffffffffffffff16905080600160006101000a81548173ffffffffffffffffffffffffffffffffffffffff021916908373ffffffffffffffffffffffffffffffffffffffff1602179055506000600160146101000a81548160ff0219169083600181111561094257610941610b76565b5b0217905550600067ffffffffffffffff81111561096257610961610c5e565b5b6040519080825280602002602001820160405280156109905781602001602082028036833780820191505090505b50600090805190602001906109a6929190610a9b565b504260028190555060008173ffffffffffffffffffffffffffffffffffffffff16476040516109d490611404565b60006040518083038185875af1925050503d8060008114610a11576040519150601f19603f3d011682016040523d82523d6000602084013e610a16565b606091505b5050905080610a51576040517f1c94012000000000000000000000000000000000000000000000000000000000815260040160405180910390fd5b8173ffffffffffffffffffffffffffffffffffffffff167f5b690ec4a06fe979403046eaeea5b3ce38524683c3001f662c8b5a829632f7df60405160405180910390a25050505050565b828054828255906000526020600020908101928215610b14579160200282015b82811115610b135782518260006101000a81548173ffffffffffffffffffffffffffffffffffffffff021916908373ffffffffffffffffffffffffffffffffffffffff16021790555091602001919060010190610abb565b5b509050610b219190610b25565b5090565b5b80821115610b3e576000816000905550600101610b26565b5090565b6000819050919050565b610b5581610b42565b82525050565b6000602082019050610b706000830184610b4c565b92915050565b7f4e487b7100000000000000000000000000000000000000000000000000000000600052602160045260246000fd5b60028110610bb657610bb5610b76565b5b50565b6000819050610bc782610ba5565b919050565b6000610bd782610bb9565b9050919050565b610be781610bcc565b82525050565b6000602082019050610c026000830184610bde565b92915050565b6000604051905090565b600080fd5b600080fd5b610c2581610b42565b8114610c3057600080fd5b50565b600081359050610c4281610c1c565b92915050565b600080fd5b6000601f19601f8301169050919050565b7f4e487b7100000000000000000000000000000000000000000000000000000000600052604160045260246000fd5b610c9682610c4d565b810181811067ffffffffffffffff82111715610cb557610cb4610c5e565b5b80604052505050565b6000610cc8610c08565b9050610cd48282610c8d565b919050565b600067ffffffffffffffff821115610cf457610cf3610c5e565b5b602082029050602081019050919050565b600080fd5b6000610d1d610d1884610cd9565b610cbe565b90508083825260208201905060208402830185811115610d4057610d3f610d05565b5b835b81811015610d695780610d558882610c33565b845260208401935050602081019050610d42565b5050509392505050565b600082601f830112610d8857610d87610c48565b5b8135610d98848260208601610d0a565b91505092915050565b60008060408385031215610db857610db7610c12565b5b6000610dc685828601610c33565b925050602083013567ffffffffffffffff811115610de757610de6610c17565b5b610df385828601610d73565b9150509250929050565b600080fd5b60008083601f840112610e1857610e17610c48565b5b8235905067ffffffffffffffff811115610e3557610e34610dfd565b5b602083019150836001820283011115610e5157610e50610d05565b5b9250929050565b60008060208385031215610e6f57610e6e610c12565b5b600083013567ffffffffffffffff811115610e8d57610e8c610c17565b5b610e9985828601610e02565b92509250509250929050565b600073ffffffffffffffffffffffffffffffffffffffff82169050919050565b6000610ed082610ea5565b9050919050565b610ee081610ec5565b82525050565b6000602082019050610efb6000830184610ed7565b92915050565b600080fd5b600067ffffffffffffffff821115610f2157610f20610c5e565b5b610f2a82610c4d565b9050602081019050919050565b82818337600083830152505050565b6000610f59610f5484610f06565b610cbe565b905082815260208101848484011115610f7557610f74610f01565b5b610f80848285610f37565b509392505050565b600082601f830112610f9d57610f9c610c48565b5b8135610fad848260208601610f46565b91505092915050565b600060208284031215610fcc57610fcb610c12565b5b600082013567ffffffffffffffff811115610fea57610fe9610c17565b5b610ff684828501610f88565b91505092915050565b60008115159050919050565b61101481610fff565b82525050565b600081519050919050565b600082825260208201905092915050565b60005b83811015611054578082015181840152602081019050611039565b60008484015250505050565b600061106b8261101a565b6110758185611025565b9350611085818560208601611036565b61108e81610c4d565b840191505092915050565b60006040820190506110ae600083018561100b565b81810360208301526110c08184611060565b90509392505050565b6000602082840312156110df576110de610c12565b5b60006110ed84828501610c33565b91505092915050565b600060408201905061110b6000830185610ed7565b6111186020830184610ed7565b9392505050565b600081905092915050565b50565b600061113a60008361111f565b91506111458261112a565b600082019050919050565b600061115b8261112d565b9150819050919050565b600060608201905061117a6000830186610b4c565b6111876020830185610b4c565b6111946040830184610b4c565b949350505050565b6000819050919050565b6111af8161119c565b82525050565b600067ffffffffffffffff82169050919050565b6111d2816111b5565b82525050565b600061ffff82169050919050565b6111ef816111d8565b82525050565b600063ffffffff82169050919050565b61120e816111f5565b82525050565b6000819050919050565b600061123961123461122f846111d8565b611214565b6111f5565b9050919050565b6112498161121e565b82525050565b600060a08201905061126460008301886111a6565b61127160208301876111c9565b61127e60408301866111e6565b61128b6060830185611205565b6112986080830184611240565b9695505050505050565b6000815190506112b181610c1c565b92915050565b6000602082840312156112cd576112cc610c12565b5b60006112db848285016112a2565b91505092915050565b7f4e487b7100000000000000000000000000000000000000000000000000000000600052601160045260246000fd5b600061131e82610b42565b915061132983610b42565b9250828203905081811115611341576113406112e4565b5b92915050565b7f4e487b7100000000000000000000000000000000000000000000000000000000600052603260045260246000fd5b7f4e487b7100000000000000000000000000000000000000000000000000000000600052601260045260246000fd5b60006113b082610b42565b91506113bb83610b42565b9250826113cb576113ca611376565b5b828206905092915050565b600081905092915050565b60006113ee6000836113d6565b91506113f98261112a565b600082019050919050565b600061140f826113e1565b915081905091905056fea26469706673582212207650833da5681c4dace8227c77a119a895976df7ad31b77a15eb3c5082b4e4b564736f6c63430008180033","opcodes":"PUSH2 0x160 PUSH1 0x40 MSTORE CALLVALUE DUP1 ISZERO PUSH3 0x12 JUMPI PUSH1 0x0 DUP1 REVERT JUMPDEST POP PUSH1 0x40 MLOAD PUSH3 0x1817 CODESIZE SUB DUP1 PUSH3 0x1817 DUP4 CODECOPY DUP2 DUP2 ADD PUSH1 0x40 MSTORE DUP2 ADD SWAP1 PUSH3 0x38 SWAP2 SWAP1 PUSH3 0x294 JUMP JUMPDEST DUP6 DUP1 PUSH20 0xFFFFFFFFFFFFFFFFFFFFFFFFFFFFFFFFFFFFFFFF AND PUSH1 0x80 DUP2 PUSH20 0xFFFFFFFFFFFFFFFFFFFFFFFFFFFFFFFFFFFFFFFF AND DUP2 MSTORE POP POP POP DUP5 PUSH1 0xA0 DUP2 DUP2 MSTORE POP POP DUP6 PUSH20 0xFFFFFFFFFFFFFFFFFFFFFFFFFFFFFFFFFFFFFFFF AND PUSH1 0xC0 DUP2 PUSH20 0xFFFFFFFFFFFFFFFFFFFFFFFFFFFFFFFFFFFFFFFF AND DUP2 MSTORE POP POP DUP4 PUSH1 0xE0 DUP2 DUP2 MSTORE POP POP DUP3 PUSH8 0xFFFFFFFFFFFFFFFF AND PUSH2 0x100 DUP2 PUSH8 0xFFFFFFFFFFFFFFFF AND DUP2 MSTORE POP POP DUP1 PUSH4 0xFFFFFFFF AND PUSH2 0x120 DUP2 PUSH4 0xFFFFFFFF AND DUP2 MSTORE POP POP PUSH1 0x0 PUSH1 0x1 PUSH1 0x14 PUSH2 0x100 EXP DUP2 SLOAD DUP2 PUSH1 0xFF MUL NOT AND SWAP1 DUP4 PUSH1 0x1 DUP2 GT ISZERO PUSH3 0x10D JUMPI PUSH3 0x10C PUSH3 0x330 JUMP JUMPDEST JUMPDEST MUL OR SWAP1 SSTORE POP TIMESTAMP PUSH1 0x2 DUP2 SWAP1 SSTORE POP DUP2 PUSH2 0x140 DUP2 DUP2 MSTORE POP POP POP POP POP POP POP POP PUSH3 0x35F JUMP JUMPDEST PUSH1 0x0 DUP1 REVERT JUMPDEST PUSH1 0x0 PUSH20 0xFFFFFFFFFFFFFFFFFFFFFFFFFFFFFFFFFFFFFFFF DUP3 AND SWAP1 POP SWAP2 SWAP1 POP JUMP JUMPDEST PUSH1 0x0 PUSH3 0x160 DUP3 PUSH3 0x133 JUMP JUMPDEST SWAP1 POP SWAP2 SWAP1 POP JUMP JUMPDEST PUSH3 0x172 DUP2 PUSH3 0x153 JUMP JUMPDEST DUP2 EQ PUSH3 0x17E JUMPI PUSH1 0x0 DUP1 REVERT JUMPDEST POP JUMP JUMPDEST PUSH1 0x0 DUP2 MLOAD SWAP1 POP PUSH3 0x192 DUP2 PUSH3 0x167 JUMP JUMPDEST SWAP3 SWAP2 POP POP JUMP JUMPDEST PUSH1 0x0 DUP2 SWAP1 POP SWAP2 SWAP1 POP JUMP JUMPDEST PUSH3 0x1AD DUP2 PUSH3 0x198 JUMP JUMPDEST DUP2 EQ PUSH3 0x1B9 JUMPI PUSH1 0x0 DUP1 REVERT JUMPDEST POP JUMP JUMPDEST PUSH1 0x0 DUP2 MLOAD SWAP1 POP PUSH3 0x1CD DUP2 PUSH3 0x1A2 JUMP JUMPDEST SWAP3 SWAP2 POP POP JUMP JUMPDEST PUSH1 0x0 DUP2 SWAP1 POP SWAP2 SWAP1 POP JUMP JUMPDEST PUSH3 0x1E8 DUP2 PUSH3 0x1D3 JUMP JUMPDEST DUP2 EQ PUSH3 0x1F4 JUMPI PUSH1 0x0 DUP1 REVERT JUMPDEST POP JUMP JUMPDEST PUSH1 0x0 DUP2 MLOAD SWAP1 POP PUSH3 0x208 DUP2 PUSH3 0x1DD JUMP JUMPDEST SWAP3 SWAP2 POP POP JUMP JUMPDEST PUSH1 0x0 PUSH8 0xFFFFFFFFFFFFFFFF DUP3 AND SWAP1 POP SWAP2 SWAP1 POP JUMP JUMPDEST PUSH3 0x22D DUP2 PUSH3 0x20E JUMP JUMPDEST DUP2 EQ PUSH3 0x239 JUMPI PUSH1 0x0 DUP1 REVERT JUMPDEST POP JUMP JUMPDEST PUSH1 0x0 DUP2 MLOAD SWAP1 POP PUSH3 0x24D DUP2 PUSH3 0x222 JUMP JUMPDEST SWAP3 SWAP2 POP POP JUMP JUMPDEST PUSH1 0x0 PUSH4 0xFFFFFFFF DUP3 AND SWAP1 POP SWAP2 SWAP1 POP JUMP JUMPDEST PUSH3 0x26E DUP2 PUSH3 0x253 JUMP JUMPDEST DUP2 EQ PUSH3 0x27A JUMPI PUSH1 0x0 DUP1 REVERT JUMPDEST POP JUMP JUMPDEST PUSH1 0x0 DUP2 MLOAD SWAP1 POP PUSH3 0x28E DUP2 PUSH3 0x263 JUMP JUMPDEST SWAP3 SWAP2 POP POP JUMP JUMPDEST PUSH1 0x0 DUP1 PUSH1 0x0 DUP1 PUSH1 0x0 DUP1 PUSH1 0xC0 DUP8 DUP10 SUB SLT ISZERO PUSH3 0x2B4 JUMPI PUSH3 0x2B3 PUSH3 0x12E JUMP JUMPDEST JUMPDEST PUSH1 0x0 PUSH3 0x2C4 DUP10 DUP3 DUP11 ADD PUSH3 0x181 JUMP JUMPDEST SWAP7 POP POP PUSH1 0x20 PUSH3 0x2D7 DUP10 DUP3 DUP11 ADD PUSH3 0x1BC JUMP JUMPDEST SWAP6 POP POP PUSH1 0x40 PUSH3 0x2EA DUP10 DUP3 DUP11 ADD PUSH3 0x1F7 JUMP JUMPDEST SWAP5 POP POP PUSH1 0x60 PUSH3 0x2FD DUP10 DUP3 DUP11 ADD PUSH3 0x23C JUMP JUMPDEST SWAP4 POP POP PUSH1 0x80 PUSH3 0x310 DUP10 DUP3 DUP11 ADD PUSH3 0x1BC JUMP JUMPDEST SWAP3 POP POP PUSH1 0xA0 PUSH3 0x323 DUP10 DUP3 DUP11 ADD PUSH3 0x27D JUMP JUMPDEST SWAP2 POP POP SWAP3 SWAP6 POP SWAP3 SWAP6 POP SWAP3 SWAP6 JUMP JUMPDEST PUSH32 0x4E487B7100000000000000000000000000000000000000000000000000000000 PUSH1 0x0 MSTORE PUSH1 0x21 PUSH1 0x4 MSTORE PUSH1 0x24 PUSH1 0x0 REVERT JUMPDEST PUSH1 0x80 MLOAD PUSH1 0xA0 MLOAD PUSH1 0xC0 MLOAD PUSH1 0xE0 MLOAD PUSH2 0x100 MLOAD PUSH2 0x120 MLOAD PUSH2 0x140 MLOAD PUSH2 0x144F PUSH3 0x3C8 PUSH1 0x0 CODECOPY PUSH1 0x0 PUSH2 0x7AC ADD MSTORE PUSH1 0x0 PUSH2 0x679 ADD MSTORE PUSH1 0x0 PUSH2 0x656 ADD MSTORE PUSH1 0x0 PUSH2 0x635 ADD MSTORE PUSH1 0x0 PUSH2 0x5F9 ADD MSTORE PUSH1 0x0 DUP2 DUP2 PUSH2 0x2B4 ADD MSTORE PUSH2 0x3B1 ADD MSTORE PUSH1 0x0 DUP2 DUP2 PUSH2 0x2F1 ADD MSTORE PUSH2 0x345 ADD MSTORE PUSH2 0x144F PUSH1 0x0 RETURN INVALID PUSH1 0x80 PUSH1 0x40 MSTORE PUSH1 0x4 CALLDATASIZE LT PUSH2 0xA7 JUMPI PUSH1 0x0 CALLDATALOAD PUSH1 0xE0 SHR DUP1 PUSH4 0x4585E33B GT PUSH2 0x64 JUMPI DUP1 PUSH4 0x4585E33B EQ PUSH2 0x18B JUMPI DUP1 PUSH4 0x473F1DDC EQ PUSH2 0x1B4 JUMPI DUP1 PUSH4 0x53A2C19A EQ PUSH2 0x1DF JUMPI DUP1 PUSH4 0x6E04FF0D EQ PUSH2 0x20A JUMPI DUP1 PUSH4 0xE55AE4E8 EQ PUSH2 0x248 JUMPI DUP1 PUSH4 0xEF277B72 EQ PUSH2 0x285 JUMPI PUSH2 0xA7 JUMP JUMPDEST DUP1 PUSH4 0x9BC33A7 EQ PUSH2 0xAC JUMPI DUP1 PUSH4 0x115CBAF5 EQ PUSH2 0xD7 JUMPI DUP1 PUSH4 0x1FE543E3 EQ PUSH2 0x102 JUMPI DUP1 PUSH4 0x2CFCC539 EQ PUSH2 0x12B JUMPI DUP1 PUSH4 0x320229EB EQ PUSH2 0x135 JUMPI DUP1 PUSH4 0x3BC764DB EQ PUSH2 0x160 JUMPI JUMPDEST PUSH1 0x0 DUP1 REVERT JUMPDEST CALLVALUE DUP1 ISZERO PUSH2 0xB8 JUMPI PUSH1 0x0 DUP1 REVERT JUMPDEST POP PUSH2 0xC1 PUSH2 0x2B0 JUMP JUMPDEST PUSH1 0x40 MLOAD PUSH2 0xCE SWAP2 SWAP1 PUSH2 0xB5B JUMP JUMPDEST PUSH1 0x40 MLOAD DUP1 SWAP2 SUB SWAP1 RETURN JUMPDEST CALLVALUE DUP1 ISZERO PUSH2 0xE3 JUMPI PUSH1 0x0 DUP1 REVERT JUMPDEST POP PUSH2 0xEC PUSH2 0x2D8 JUMP JUMPDEST PUSH1 0x40 MLOAD PUSH2 0xF9 SWAP2 SWAP1 PUSH2 0xBED JUMP JUMPDEST PUSH1 0x40 MLOAD DUP1 SWAP2 SUB SWAP1 RETURN JUMPDEST CALLVALUE DUP1 ISZERO PUSH2 0x10E JUMPI PUSH1 0x0 DUP1 REVERT JUMPDEST POP PUSH2 0x129 PUSH1 0x4 DUP1 CALLDATASIZE SUB DUP2 ADD SWAP1 PUSH2 0x124 SWAP2 SWAP1 PUSH2 0xDA1 JUMP JUMPDEST PUSH2 0x2EF JUMP JUMPDEST STOP JUMPDEST PUSH2 0x133 PUSH2 0x3AF JUMP JUMPDEST STOP JUMPDEST CALLVALUE DUP1 ISZERO PUSH2 0x141 JUMPI PUSH1 0x0 DUP1 REVERT JUMPDEST POP PUSH2 0x14A PUSH2 0x51E JUMP JUMPDEST PUSH1 0x40 MLOAD PUSH2 0x157 SWAP2 SWAP1 PUSH2 0xB5B JUMP JUMPDEST PUSH1 0x40 MLOAD DUP1 SWAP2 SUB SWAP1 RETURN JUMPDEST CALLVALUE DUP1 ISZERO PUSH2 0x16C JUMPI PUSH1 0x0 DUP1 REVERT JUMPDEST POP PUSH2 0x175 PUSH2 0x528 JUMP JUMPDEST PUSH1 0x40 MLOAD PUSH2 0x182 SWAP2 SWAP1 PUSH2 0xB5B JUMP JUMPDEST PUSH1 0x40 MLOAD DUP1 SWAP2 SUB SWAP1 RETURN JUMPDEST CALLVALUE DUP1 ISZERO PUSH2 0x197 JUMPI PUSH1 0x0 DUP1 REVERT JUMPDEST POP PUSH2 0x1B2 PUSH1 0x4 DUP1 CALLDATASIZE SUB DUP2 ADD SWAP1 PUSH2 0x1AD SWAP2 SWAP1 PUSH2 0xE58 JUMP JUMPDEST PUSH2 0x534 JUMP JUMPDEST STOP JUMPDEST CALLVALUE DUP1 ISZERO PUSH2 0x1C0 JUMPI PUSH1 0x0 DUP1 REVERT JUMPDEST POP PUSH2 0x1C9 PUSH2 0x732 JUMP JUMPDEST PUSH1 0x40 MLOAD PUSH2 0x1D6 SWAP2 SWAP1 PUSH2 0xEE6 JUMP JUMPDEST PUSH1 0x40 MLOAD DUP1 SWAP2 SUB SWAP1 RETURN JUMPDEST CALLVALUE DUP1 ISZERO PUSH2 0x1EB JUMPI PUSH1 0x0 DUP1 REVERT JUMPDEST POP PUSH2 0x1F4 PUSH2 0x75C JUMP JUMPDEST PUSH1 0x40 MLOAD PUSH2 0x201 SWAP2 SWAP1 PUSH2 0xB5B JUMP JUMPDEST PUSH1 0x40 MLOAD DUP1 SWAP2 SUB SWAP1 RETURN JUMPDEST CALLVALUE DUP1 ISZERO PUSH2 0x216 JUMPI PUSH1 0x0 DUP1 REVERT JUMPDEST POP PUSH2 0x231 PUSH1 0x4 DUP1 CALLDATASIZE SUB DUP2 ADD SWAP1 PUSH2 0x22C SWAP2 SWAP1 PUSH2 0xFB6 JUMP JUMPDEST PUSH2 0x769 JUMP JUMPDEST PUSH1 0x40 MLOAD PUSH2 0x23F SWAP3 SWAP2 SWAP1 PUSH2 0x1099 JUMP JUMPDEST PUSH1 0x40 MLOAD DUP1 SWAP2 SUB SWAP1 RETURN JUMPDEST CALLVALUE DUP1 ISZERO PUSH2 0x254 JUMPI PUSH1 0x0 DUP1 REVERT JUMPDEST POP PUSH2 0x26F PUSH1 0x4 DUP1 CALLDATASIZE SUB DUP2 ADD SWAP1 PUSH2 0x26A SWAP2 SWAP1 PUSH2 0x10C9 JUMP JUMPDEST PUSH2 0x816 JUMP JUMPDEST PUSH1 0x40 MLOAD PUSH2 0x27C SWAP2 SWAP1 PUSH2 0xEE6 JUMP JUMPDEST PUSH1 0x40 MLOAD DUP1 SWAP2 SUB SWAP1 RETURN JUMPDEST CALLVALUE DUP1 ISZERO PUSH2 0x291 JUMPI PUSH1 0x0 DUP1 REVERT JUMPDEST POP PUSH2 0x29A PUSH2 0x85D JUMP JUMPDEST PUSH1 0x40 MLOAD PUSH2 0x2A7 SWAP2 SWAP1 PUSH2 0xB5B JUMP JUMPDEST PUSH1 0x40 MLOAD DUP1 SWAP2 SUB SWAP1 RETURN JUMPDEST PUSH1 0x0 PUSH32 0x0 SWAP1 POP SWAP1 JUMP JUMPDEST PUSH1 0x0 PUSH1 0x1 PUSH1 0x14 SWAP1 SLOAD SWAP1 PUSH2 0x100 EXP SWAP1 DIV PUSH1 0xFF AND SWAP1 POP SWAP1 JUMP JUMPDEST PUSH32 0x0 PUSH20 0xFFFFFFFFFFFFFFFFFFFFFFFFFFFFFFFFFFFFFFFF AND CALLER PUSH20 0xFFFFFFFFFFFFFFFFFFFFFFFFFFFFFFFFFFFFFFFF AND EQ PUSH2 0x3A1 JUMPI CALLER PUSH32 0x0 PUSH1 0x40 MLOAD PUSH32 0x1CF993F400000000000000000000000000000000000000000000000000000000 DUP2 MSTORE PUSH1 0x4 ADD PUSH2 0x398 SWAP3 SWAP2 SWAP1 PUSH2 0x10F6 JUMP JUMPDEST PUSH1 0x40 MLOAD DUP1 SWAP2 SUB SWAP1 REVERT JUMPDEST PUSH2 0x3AB DUP3 DUP3 PUSH2 0x86A JUMP JUMPDEST POP POP JUMP JUMPDEST PUSH32 0x0 CALLVALUE LT ISZERO PUSH2 0x409 JUMPI PUSH1 0x40 MLOAD PUSH32 0xEC269FD100000000000000000000000000000000000000000000000000000000 DUP2 MSTORE PUSH1 0x4 ADD PUSH1 0x40 MLOAD DUP1 SWAP2 SUB SWAP1 REVERT JUMPDEST PUSH1 0x0 PUSH1 0x1 DUP2 GT ISZERO PUSH2 0x41D JUMPI PUSH2 0x41C PUSH2 0xB76 JUMP JUMPDEST JUMPDEST PUSH1 0x1 PUSH1 0x14 SWAP1 SLOAD SWAP1 PUSH2 0x100 EXP SWAP1 DIV PUSH1 0xFF AND PUSH1 0x1 DUP2 GT ISZERO PUSH2 0x43F JUMPI PUSH2 0x43E PUSH2 0xB76 JUMP JUMPDEST JUMPDEST EQ PUSH2 0x476 JUMPI PUSH1 0x40 MLOAD PUSH32 0xE76BE6FC00000000000000000000000000000000000000000000000000000000 DUP2 MSTORE PUSH1 0x4 ADD PUSH1 0x40 MLOAD DUP1 SWAP2 SUB SWAP1 REVERT JUMPDEST PUSH1 0x0 CALLER SWAP1 DUP1 PUSH1 0x1 DUP2 SLOAD ADD DUP1 DUP3 SSTORE DUP1 SWAP2 POP POP PUSH1 0x1 SWAP1 SUB SWAP1 PUSH1 0x0 MSTORE PUSH1 0x20 PUSH1 0x0 KECCAK256 ADD PUSH1 0x0 SWAP1 SWAP2 SWAP1 SWAP2 SWAP1 SWAP2 PUSH2 0x100 EXP DUP2 SLOAD DUP2 PUSH20 0xFFFFFFFFFFFFFFFFFFFFFFFFFFFFFFFFFFFFFFFF MUL NOT AND SWAP1 DUP4 PUSH20 0xFFFFFFFFFFFFFFFFFFFFFFFFFFFFFFFFFFFFFFFF AND MUL OR SWAP1 SSTORE POP CALLER PUSH20 0xFFFFFFFFFFFFFFFFFFFFFFFFFFFFFFFFFFFFFFFF AND PUSH32 0x805E1D667BDDB8A95F0F09880CF94F403FB596CE79928D9F29B74203BA284D4 PUSH1 0x40 MLOAD PUSH1 0x40 MLOAD DUP1 SWAP2 SUB SWAP1 LOG2 JUMP JUMPDEST PUSH1 0x0 PUSH1 0x2 SLOAD SWAP1 POP SWAP1 JUMP JUMPDEST PUSH1 0x0 DUP1 DUP1 SLOAD SWAP1 POP SWAP1 POP SWAP1 JUMP JUMPDEST PUSH1 0x0 PUSH2 0x55C PUSH1 0x40 MLOAD PUSH1 0x20 ADD PUSH2 0x548 SWAP1 PUSH2 0x1150 JUMP JUMPDEST PUSH1 0x40 MLOAD PUSH1 0x20 DUP2 DUP4 SUB SUB DUP2 MSTORE SWAP1 PUSH1 0x40 MSTORE PUSH2 0x769 JUMP JUMPDEST POP SWAP1 POP DUP1 PUSH2 0x5CB JUMPI SELFBALANCE PUSH1 0x0 DUP1 SLOAD SWAP1 POP PUSH1 0x1 PUSH1 0x14 SWAP1 SLOAD SWAP1 PUSH2 0x100 EXP SWAP1 DIV PUSH1 0xFF AND PUSH1 0x1 DUP2 GT ISZERO PUSH2 0x58D JUMPI PUSH2 0x58C PUSH2 0xB76 JUMP JUMPDEST JUMPDEST PUSH1 0x40 MLOAD PUSH32 0x6F118E9000000000000000000000000000000000000000000000000000000000 DUP2 MSTORE PUSH1 0x4 ADD PUSH2 0x5C2 SWAP4 SWAP3 SWAP2 SWAP1 PUSH2 0x1165 JUMP JUMPDEST PUSH1 0x40 MLOAD DUP1 SWAP2 SUB SWAP1 REVERT JUMPDEST PUSH1 0x1 DUP1 PUSH1 0x14 PUSH2 0x100 EXP DUP2 SLOAD DUP2 PUSH1 0xFF MUL NOT AND SWAP1 DUP4 PUSH1 0x1 DUP2 GT ISZERO PUSH2 0x5F0 JUMPI PUSH2 0x5EF PUSH2 0xB76 JUMP JUMPDEST JUMPDEST MUL OR SWAP1 SSTORE POP PUSH1 0x0 PUSH32 0x0 PUSH20 0xFFFFFFFFFFFFFFFFFFFFFFFFFFFFFFFFFFFFFFFF AND PUSH4 0x5D3B1D30 PUSH32 0x0 PUSH32 0x0 PUSH1 0x3 PUSH32 0x0 PUSH1 0x3 PUSH1 0x40 MLOAD DUP7 PUSH4 0xFFFFFFFF AND PUSH1 0xE0 SHL DUP2 MSTORE PUSH1 0x4 ADD PUSH2 0x6BA SWAP6 SWAP5 SWAP4 SWAP3 SWAP2 SWAP1 PUSH2 0x124F JUMP JUMPDEST PUSH1 0x20 PUSH1 0x40 MLOAD DUP1 DUP4 SUB DUP2 PUSH1 0x0 DUP8 GAS CALL ISZERO DUP1 ISZERO PUSH2 0x6D9 JUMPI RETURNDATASIZE PUSH1 0x0 DUP1 RETURNDATACOPY RETURNDATASIZE PUSH1 0x0 REVERT JUMPDEST POP POP POP POP PUSH1 0x40 MLOAD RETURNDATASIZE PUSH1 0x1F NOT PUSH1 0x1F DUP3 ADD AND DUP3 ADD DUP1 PUSH1 0x40 MSTORE POP DUP2 ADD SWAP1 PUSH2 0x6FD SWAP2 SWAP1 PUSH2 0x12B7 JUMP JUMPDEST SWAP1 POP DUP1 PUSH32 0xCD6E45C8998311CAB7E9D4385596CAC867E20A0587194B954FA3A731C93CE78B PUSH1 0x40 MLOAD PUSH1 0x40 MLOAD DUP1 SWAP2 SUB SWAP1 LOG2 POP POP POP POP JUMP JUMPDEST PUSH1 0x0 PUSH1 0x1 PUSH1 0x0 SWAP1 SLOAD SWAP1 PUSH2 0x100 EXP SWAP1 DIV PUSH20 0xFFFFFFFFFFFFFFFFFFFFFFFFFFFFFFFFFFFFFFFF AND SWAP1 POP SWAP1 JUMP JUMPDEST PUSH1 0x0 PUSH1 0x3 PUSH2 0xFFFF AND SWAP1 POP SWAP1 JUMP JUMPDEST PUSH1 0x0 PUSH1 0x60 PUSH1 0x0 PUSH1 0x1 PUSH1 0x14 SWAP1 SLOAD SWAP1 PUSH2 0x100 EXP SWAP1 DIV PUSH1 0xFF AND PUSH1 0x1 DUP2 GT ISZERO PUSH2 0x791 JUMPI PUSH2 0x790 PUSH2 0xB76 JUMP JUMPDEST JUMPDEST PUSH1 0x0 PUSH1 0x1 DUP2 GT ISZERO PUSH2 0x7A5 JUMPI PUSH2 0x7A4 PUSH2 0xB76 JUMP JUMPDEST JUMPDEST EQ SWAP1 POP PUSH1 0x0 PUSH32 0x0 PUSH1 0x2 SLOAD TIMESTAMP PUSH2 0x7D9 SWAP2 SWAP1 PUSH2 0x1313 JUMP JUMPDEST GT SWAP1 POP PUSH1 0x0 DUP1 PUSH1 0x0 DUP1 SLOAD SWAP1 POP GT SWAP1 POP PUSH1 0x0 DUP1 SELFBALANCE GT SWAP1 POP DUP4 DUP1 ISZERO PUSH2 0x7F9 JUMPI POP DUP3 JUMPDEST DUP1 ISZERO PUSH2 0x802 JUMPI POP DUP2 JUMPDEST DUP1 ISZERO PUSH2 0x80B JUMPI POP DUP1 JUMPDEST SWAP6 POP POP POP POP POP SWAP2 POP SWAP2 JUMP JUMPDEST PUSH1 0x0 DUP1 DUP3 DUP2 SLOAD DUP2 LT PUSH2 0x82B JUMPI PUSH2 0x82A PUSH2 0x1347 JUMP JUMPDEST JUMPDEST SWAP1 PUSH1 0x0 MSTORE PUSH1 0x20 PUSH1 0x0 KECCAK256 ADD PUSH1 0x0 SWAP1 SLOAD SWAP1 PUSH2 0x100 EXP SWAP1 DIV PUSH20 0xFFFFFFFFFFFFFFFFFFFFFFFFFFFFFFFFFFFFFFFF AND SWAP1 POP SWAP2 SWAP1 POP JUMP JUMPDEST PUSH1 0x0 PUSH1 0x3 PUSH2 0xFFFF AND SWAP1 POP SWAP1 JUMP JUMPDEST PUSH1 0x0 DUP1 DUP1 SLOAD SWAP1 POP DUP3 PUSH1 0x0 DUP2 MLOAD DUP2 LT PUSH2 0x885 JUMPI PUSH2 0x884 PUSH2 0x1347 JUMP JUMPDEST JUMPDEST PUSH1 0x20 MUL PUSH1 0x20 ADD ADD MLOAD PUSH2 0x897 SWAP2 SWAP1 PUSH2 0x13A5 JUMP JUMPDEST SWAP1 POP PUSH1 0x0 DUP1 DUP3 DUP2 SLOAD DUP2 LT PUSH2 0x8AE JUMPI PUSH2 0x8AD PUSH2 0x1347 JUMP JUMPDEST JUMPDEST SWAP1 PUSH1 0x0 MSTORE PUSH1 0x20 PUSH1 0x0 KECCAK256 ADD PUSH1 0x0 SWAP1 SLOAD SWAP1 PUSH2 0x100 EXP SWAP1 DIV PUSH20 0xFFFFFFFFFFFFFFFFFFFFFFFFFFFFFFFFFFFFFFFF AND SWAP1 POP DUP1 PUSH1 0x1 PUSH1 0x0 PUSH2 0x100 EXP DUP2 SLOAD DUP2 PUSH20 0xFFFFFFFFFFFFFFFFFFFFFFFFFFFFFFFFFFFFFFFF MUL NOT AND SWAP1 DUP4 PUSH20 0xFFFFFFFFFFFFFFFFFFFFFFFFFFFFFFFFFFFFFFFF AND MUL OR SWAP1 SSTORE POP PUSH1 0x0 PUSH1 0x1 PUSH1 0x14 PUSH2 0x100 EXP DUP2 SLOAD DUP2 PUSH1 0xFF MUL NOT AND SWAP1 DUP4 PUSH1 0x1 DUP2 GT ISZERO PUSH2 0x942 JUMPI PUSH2 0x941 PUSH2 0xB76 JUMP JUMPDEST JUMPDEST MUL OR SWAP1 SSTORE POP PUSH1 0x0 PUSH8 0xFFFFFFFFFFFFFFFF DUP2 GT ISZERO PUSH2 0x962 JUMPI PUSH2 0x961 PUSH2 0xC5E JUMP JUMPDEST JUMPDEST PUSH1 0x40 MLOAD SWAP1 DUP1 DUP3 MSTORE DUP1 PUSH1 0x20 MUL PUSH1 0x20 ADD DUP3 ADD PUSH1 0x40 MSTORE DUP1 ISZERO PUSH2 0x990 JUMPI DUP2 PUSH1 0x20 ADD PUSH1 0x20 DUP3 MUL DUP1 CALLDATASIZE DUP4 CALLDATACOPY DUP1 DUP3 ADD SWAP2 POP POP SWAP1 POP JUMPDEST POP PUSH1 0x0 SWAP1 DUP1 MLOAD SWAP1 PUSH1 0x20 ADD SWAP1 PUSH2 0x9A6 SWAP3 SWAP2 SWAP1 PUSH2 0xA9B JUMP JUMPDEST POP TIMESTAMP PUSH1 0x2 DUP2 SWAP1 SSTORE POP PUSH1 0x0 DUP2 PUSH20 0xFFFFFFFFFFFFFFFFFFFFFFFFFFFFFFFFFFFFFFFF AND SELFBALANCE PUSH1 0x40 MLOAD PUSH2 0x9D4 SWAP1 PUSH2 0x1404 JUMP JUMPDEST PUSH1 0x0 PUSH1 0x40 MLOAD DUP1 DUP4 SUB DUP2 DUP6 DUP8 GAS CALL SWAP3 POP POP POP RETURNDATASIZE DUP1 PUSH1 0x0 DUP2 EQ PUSH2 0xA11 JUMPI PUSH1 0x40 MLOAD SWAP2 POP PUSH1 0x1F NOT PUSH1 0x3F RETURNDATASIZE ADD AND DUP3 ADD PUSH1 0x40 MSTORE RETURNDATASIZE DUP3 MSTORE RETURNDATASIZE PUSH1 0x0 PUSH1 0x20 DUP5 ADD RETURNDATACOPY PUSH2 0xA16 JUMP JUMPDEST PUSH1 0x60 SWAP2 POP JUMPDEST POP POP SWAP1 POP DUP1 PUSH2 0xA51 JUMPI PUSH1 0x40 MLOAD PUSH32 0x1C94012000000000000000000000000000000000000000000000000000000000 DUP2 MSTORE PUSH1 0x4 ADD PUSH1 0x40 MLOAD DUP1 SWAP2 SUB SWAP1 REVERT JUMPDEST DUP2 PUSH20 0xFFFFFFFFFFFFFFFFFFFFFFFFFFFFFFFFFFFFFFFF AND PUSH32 0x5B690EC4A06FE979403046EAEEA5B3CE38524683C3001F662C8B5A829632F7DF PUSH1 0x40 MLOAD PUSH1 0x40 MLOAD DUP1 SWAP2 SUB SWAP1 LOG2 POP POP POP POP POP JUMP JUMPDEST DUP3 DUP1 SLOAD DUP3 DUP3 SSTORE SWAP1 PUSH1 0x0 MSTORE PUSH1 0x20 PUSH1 0x0 KECCAK256 SWAP1 DUP2 ADD SWAP3 DUP3 ISZERO PUSH2 0xB14 JUMPI SWAP2 PUSH1 0x20 MUL DUP3 ADD JUMPDEST DUP3 DUP2 GT ISZERO PUSH2 0xB13 JUMPI DUP3 MLOAD DUP3 PUSH1 0x0 PUSH2 0x100 EXP DUP2 SLOAD DUP2 PUSH20 0xFFFFFFFFFFFFFFFFFFFFFFFFFFFFFFFFFFFFFFFF MUL NOT AND SWAP1 DUP4 PUSH20 0xFFFFFFFFFFFFFFFFFFFFFFFFFFFFFFFFFFFFFFFF AND MUL OR SWAP1 SSTORE POP SWAP2 PUSH1 0x20 ADD SWAP2 SWAP1 PUSH1 0x1 ADD SWAP1 PUSH2 0xABB JUMP JUMPDEST JUMPDEST POP SWAP1 POP PUSH2 0xB21 SWAP2 SWAP1 PUSH2 0xB25 JUMP JUMPDEST POP SWAP1 JUMP JUMPDEST JUMPDEST DUP1 DUP3 GT ISZERO PUSH2 0xB3E JUMPI PUSH1 0x0 DUP2 PUSH1 0x0 SWAP1 SSTORE POP PUSH1 0x1 ADD PUSH2 0xB26 JUMP JUMPDEST POP SWAP1 JUMP JUMPDEST PUSH1 0x0 DUP2 SWAP1 POP SWAP2 SWAP1 POP JUMP JUMPDEST PUSH2 0xB55 DUP2 PUSH2 0xB42 JUMP JUMPDEST DUP3 MSTORE POP POP JUMP JUMPDEST PUSH1 0x0 PUSH1 0x20 DUP3 ADD SWAP1 POP PUSH2 0xB70 PUSH1 0x0 DUP4 ADD DUP5 PUSH2 0xB4C JUMP JUMPDEST SWAP3 SWAP2 POP POP JUMP JUMPDEST PUSH32 0x4E487B7100000000000000000000000000000000000000000000000000000000 PUSH1 0x0 MSTORE PUSH1 0x21 PUSH1 0x4 MSTORE PUSH1 0x24 PUSH1 0x0 REVERT JUMPDEST PUSH1 0x2 DUP2 LT PUSH2 0xBB6 JUMPI PUSH2 0xBB5 PUSH2 0xB76 JUMP JUMPDEST JUMPDEST POP JUMP JUMPDEST PUSH1 0x0 DUP2 SWAP1 POP PUSH2 0xBC7 DUP3 PUSH2 0xBA5 JUMP JUMPDEST SWAP2 SWAP1 POP JUMP JUMPDEST PUSH1 0x0 PUSH2 0xBD7 DUP3 PUSH2 0xBB9 JUMP JUMPDEST SWAP1 POP SWAP2 SWAP1 POP JUMP JUMPDEST PUSH2 0xBE7 DUP2 PUSH2 0xBCC JUMP JUMPDEST DUP3 MSTORE POP POP JUMP JUMPDEST PUSH1 0x0 PUSH1 0x20 DUP3 ADD SWAP1 POP PUSH2 0xC02 PUSH1 0x0 DUP4 ADD DUP5 PUSH2 0xBDE JUMP JUMPDEST SWAP3 SWAP2 POP POP JUMP JUMPDEST PUSH1 0x0 PUSH1 0x40 MLOAD SWAP1 POP SWAP1 JUMP JUMPDEST PUSH1 0x0 DUP1 REVERT JUMPDEST PUSH1 0x0 DUP1 REVERT JUMPDEST PUSH2 0xC25 DUP2 PUSH2 0xB42 JUMP JUMPDEST DUP2 EQ PUSH2 0xC30 JUMPI PUSH1 0x0 DUP1 REVERT JUMPDEST POP JUMP JUMPDEST PUSH1 0x0 DUP2 CALLDATALOAD SWAP1 POP PUSH2 0xC42 DUP2 PUSH2 0xC1C JUMP JUMPDEST SWAP3 SWAP2 POP POP JUMP JUMPDEST PUSH1 0x0 DUP1 REVERT JUMPDEST PUSH1 0x0 PUSH1 0x1F NOT PUSH1 0x1F DUP4 ADD AND SWAP1 POP SWAP2 SWAP1 POP JUMP JUMPDEST PUSH32 0x4E487B7100000000000000000000000000000000000000000000000000000000 PUSH1 0x0 MSTORE PUSH1 0x41 PUSH1 0x4 MSTORE PUSH1 0x24 PUSH1 0x0 REVERT JUMPDEST PUSH2 0xC96 DUP3 PUSH2 0xC4D JUMP JUMPDEST DUP2 ADD DUP2 DUP2 LT PUSH8 0xFFFFFFFFFFFFFFFF DUP3 GT OR ISZERO PUSH2 0xCB5 JUMPI PUSH2 0xCB4 PUSH2 0xC5E JUMP JUMPDEST JUMPDEST DUP1 PUSH1 0x40 MSTORE POP POP POP JUMP JUMPDEST PUSH1 0x0 PUSH2 0xCC8 PUSH2 0xC08 JUMP JUMPDEST SWAP1 POP PUSH2 0xCD4 DUP3 DUP3 PUSH2 0xC8D JUMP JUMPDEST SWAP2 SWAP1 POP JUMP JUMPDEST PUSH1 0x0 PUSH8 0xFFFFFFFFFFFFFFFF DUP3 GT ISZERO PUSH2 0xCF4 JUMPI PUSH2 0xCF3 PUSH2 0xC5E JUMP JUMPDEST JUMPDEST PUSH1 0x20 DUP3 MUL SWAP1 POP PUSH1 0x20 DUP2 ADD SWAP1 POP SWAP2 SWAP1 POP JUMP JUMPDEST PUSH1 0x0 DUP1 REVERT JUMPDEST PUSH1 0x0 PUSH2 0xD1D PUSH2 0xD18 DUP5 PUSH2 0xCD9 JUMP JUMPDEST PUSH2 0xCBE JUMP JUMPDEST SWAP1 POP DUP1 DUP4 DUP3 MSTORE PUSH1 0x20 DUP3 ADD SWAP1 POP PUSH1 0x20 DUP5 MUL DUP4 ADD DUP6 DUP2 GT ISZERO PUSH2 0xD40 JUMPI PUSH2 0xD3F PUSH2 0xD05 JUMP JUMPDEST JUMPDEST DUP4 JUMPDEST DUP2 DUP2 LT ISZERO PUSH2 0xD69 JUMPI DUP1 PUSH2 0xD55 DUP9 DUP3 PUSH2 0xC33 JUMP JUMPDEST DUP5 MSTORE PUSH1 0x20 DUP5 ADD SWAP4 POP POP PUSH1 0x20 DUP2 ADD SWAP1 POP PUSH2 0xD42 JUMP JUMPDEST POP POP POP SWAP4 SWAP3 POP POP POP JUMP JUMPDEST PUSH1 0x0 DUP3 PUSH1 0x1F DUP4 ADD SLT PUSH2 0xD88 JUMPI PUSH2 0xD87 PUSH2 0xC48 JUMP JUMPDEST JUMPDEST DUP2 CALLDATALOAD PUSH2 0xD98 DUP5 DUP3 PUSH1 0x20 DUP7 ADD PUSH2 0xD0A JUMP JUMPDEST SWAP2 POP POP SWAP3 SWAP2 POP POP JUMP JUMPDEST PUSH1 0x0 DUP1 PUSH1 0x40 DUP4 DUP6 SUB SLT ISZERO PUSH2 0xDB8 JUMPI PUSH2 0xDB7 PUSH2 0xC12 JUMP JUMPDEST JUMPDEST PUSH1 0x0 PUSH2 0xDC6 DUP6 DUP3 DUP7 ADD PUSH2 0xC33 JUMP JUMPDEST SWAP3 POP POP PUSH1 0x20 DUP4 ADD CALLDATALOAD PUSH8 0xFFFFFFFFFFFFFFFF DUP2 GT ISZERO PUSH2 0xDE7 JUMPI PUSH2 0xDE6 PUSH2 0xC17 JUMP JUMPDEST JUMPDEST PUSH2 0xDF3 DUP6 DUP3 DUP7 ADD PUSH2 0xD73 JUMP JUMPDEST SWAP2 POP POP SWAP3 POP SWAP3 SWAP1 POP JUMP JUMPDEST PUSH1 0x0 DUP1 REVERT JUMPDEST PUSH1 0x0 DUP1 DUP4 PUSH1 0x1F DUP5 ADD SLT PUSH2 0xE18 JUMPI PUSH2 0xE17 PUSH2 0xC48 JUMP JUMPDEST JUMPDEST DUP3 CALLDATALOAD SWAP1 POP PUSH8 0xFFFFFFFFFFFFFFFF DUP2 GT ISZERO PUSH2 0xE35 JUMPI PUSH2 0xE34 PUSH2 0xDFD JUMP JUMPDEST JUMPDEST PUSH1 0x20 DUP4 ADD SWAP2 POP DUP4 PUSH1 0x1 DUP3 MUL DUP4 ADD GT ISZERO PUSH2 0xE51 JUMPI PUSH2 0xE50 PUSH2 0xD05 JUMP JUMPDEST JUMPDEST SWAP3 POP SWAP3 SWAP1 POP JUMP JUMPDEST PUSH1 0x0 DUP1 PUSH1 0x20 DUP4 DUP6 SUB SLT ISZERO PUSH2 0xE6F JUMPI PUSH2 0xE6E PUSH2 0xC12 JUMP JUMPDEST JUMPDEST PUSH1 0x0 DUP4 ADD CALLDATALOAD PUSH8 0xFFFFFFFFFFFFFFFF DUP2 GT ISZERO PUSH2 0xE8D JUMPI PUSH2 0xE8C PUSH2 0xC17 JUMP JUMPDEST JUMPDEST PUSH2 0xE99 DUP6 DUP3 DUP7 ADD PUSH2 0xE02 JUMP JUMPDEST SWAP3 POP SWAP3 POP POP SWAP3 POP SWAP3 SWAP1 POP JUMP JUMPDEST PUSH1 0x0 PUSH20 0xFFFFFFFFFFFFFFFFFFFFFFFFFFFFFFFFFFFFFFFF DUP3 AND SWAP1 POP SWAP2 SWAP1 POP JUMP JUMPDEST PUSH1 0x0 PUSH2 0xED0 DUP3 PUSH2 0xEA5 JUMP JUMPDEST SWAP1 POP SWAP2 SWAP1 POP JUMP JUMPDEST PUSH2 0xEE0 DUP2 PUSH2 0xEC5 JUMP JUMPDEST DUP3 MSTORE POP POP JUMP JUMPDEST PUSH1 0x0 PUSH1 0x20 DUP3 ADD SWAP1 POP PUSH2 0xEFB PUSH1 0x0 DUP4 ADD DUP5 PUSH2 0xED7 JUMP JUMPDEST SWAP3 SWAP2 POP POP JUMP JUMPDEST PUSH1 0x0 DUP1 REVERT JUMPDEST PUSH1 0x0 PUSH8 0xFFFFFFFFFFFFFFFF DUP3 GT ISZERO PUSH2 0xF21 JUMPI PUSH2 0xF20 PUSH2 0xC5E JUMP JUMPDEST JUMPDEST PUSH2 0xF2A DUP3 PUSH2 0xC4D JUMP JUMPDEST SWAP1 POP PUSH1 0x20 DUP2 ADD SWAP1 POP SWAP2 SWAP1 POP JUMP JUMPDEST DUP3 DUP2 DUP4 CALLDATACOPY PUSH1 0x0 DUP4 DUP4 ADD MSTORE POP POP POP JUMP JUMPDEST PUSH1 0x0 PUSH2 0xF59 PUSH2 0xF54 DUP5 PUSH2 0xF06 JUMP JUMPDEST PUSH2 0xCBE JUMP JUMPDEST SWAP1 POP DUP3 DUP2 MSTORE PUSH1 0x20 DUP2 ADD DUP5 DUP5 DUP5 ADD GT ISZERO PUSH2 0xF75 JUMPI PUSH2 0xF74 PUSH2 0xF01 JUMP JUMPDEST JUMPDEST PUSH2 0xF80 DUP5 DUP3 DUP6 PUSH2 0xF37 JUMP JUMPDEST POP SWAP4 SWAP3 POP POP POP JUMP JUMPDEST PUSH1 0x0 DUP3 PUSH1 0x1F DUP4 ADD SLT PUSH2 0xF9D JUMPI PUSH2 0xF9C PUSH2 0xC48 JUMP JUMPDEST JUMPDEST DUP2 CALLDATALOAD PUSH2 0xFAD DUP5 DUP3 PUSH1 0x20 DUP7 ADD PUSH2 0xF46 JUMP JUMPDEST SWAP2 POP POP SWAP3 SWAP2 POP POP JUMP JUMPDEST PUSH1 0x0 PUSH1 0x20 DUP3 DUP5 SUB SLT ISZERO PUSH2 0xFCC JUMPI PUSH2 0xFCB PUSH2 0xC12 JUMP JUMPDEST JUMPDEST PUSH1 0x0 DUP3 ADD CALLDATALOAD PUSH8 0xFFFFFFFFFFFFFFFF DUP2 GT ISZERO PUSH2 0xFEA JUMPI PUSH2 0xFE9 PUSH2 0xC17 JUMP JUMPDEST JUMPDEST PUSH2 0xFF6 DUP5 DUP3 DUP6 ADD PUSH2 0xF88 JUMP JUMPDEST SWAP2 POP POP SWAP3 SWAP2 POP POP JUMP JUMPDEST PUSH1 0x0 DUP2 ISZERO ISZERO SWAP1 POP SWAP2 SWAP1 POP JUMP JUMPDEST PUSH2 0x1014 DUP2 PUSH2 0xFFF JUMP JUMPDEST DUP3 MSTORE POP POP JUMP JUMPDEST PUSH1 0x0 DUP2 MLOAD SWAP1 POP SWAP2 SWAP1 POP JUMP JUMPDEST PUSH1 0x0 DUP3 DUP3 MSTORE PUSH1 0x20 DUP3 ADD SWAP1 POP SWAP3 SWAP2 POP POP JUMP JUMPDEST PUSH1 0x0 JUMPDEST DUP4 DUP2 LT ISZERO PUSH2 0x1054 JUMPI DUP1 DUP3 ADD MLOAD DUP2 DUP5 ADD MSTORE PUSH1 0x20 DUP2 ADD SWAP1 POP PUSH2 0x1039 JUMP JUMPDEST PUSH1 0x0 DUP5 DUP5 ADD MSTORE POP POP POP POP JUMP JUMPDEST PUSH1 0x0 PUSH2 0x106B DUP3 PUSH2 0x101A JUMP JUMPDEST PUSH2 0x1075 DUP2 DUP6 PUSH2 0x1025 JUMP JUMPDEST SWAP4 POP PUSH2 0x1085 DUP2 DUP6 PUSH1 0x20 DUP7 ADD PUSH2 0x1036 JUMP JUMPDEST PUSH2 0x108E DUP2 PUSH2 0xC4D JUMP JUMPDEST DUP5 ADD SWAP2 POP POP SWAP3 SWAP2 POP POP JUMP JUMPDEST PUSH1 0x0 PUSH1 0x40 DUP3 ADD SWAP1 POP PUSH2 0x10AE PUSH1 0x0 DUP4 ADD DUP6 PUSH2 0x100B JUMP JUMPDEST DUP2 DUP2 SUB PUSH1 0x20 DUP4 ADD MSTORE PUSH2 0x10C0 DUP2 DUP5 PUSH2 0x1060 JUMP JUMPDEST SWAP1 POP SWAP4 SWAP3 POP POP POP JUMP JUMPDEST PUSH1 0x0 PUSH1 0x20 DUP3 DUP5 SUB SLT ISZERO PUSH2 0x10DF JUMPI PUSH2 0x10DE PUSH2 0xC12 JUMP JUMPDEST JUMPDEST PUSH1 0x0 PUSH2 0x10ED DUP5 DUP3 DUP6 ADD PUSH2 0xC33 JUMP JUMPDEST SWAP2 POP POP SWAP3 SWAP2 POP POP JUMP JUMPDEST PUSH1 0x0 PUSH1 0x40 DUP3 ADD SWAP1 POP PUSH2 0x110B PUSH1 0x0 DUP4 ADD DUP6 PUSH2 0xED7 JUMP JUMPDEST PUSH2 0x1118 PUSH1 0x20 DUP4 ADD DUP5 PUSH2 0xED7 JUMP JUMPDEST SWAP4 SWAP3 POP POP POP JUMP JUMPDEST PUSH1 0x0 DUP2 SWAP1 POP SWAP3 SWAP2 POP POP JUMP JUMPDEST POP JUMP JUMPDEST PUSH1 0x0 PUSH2 0x113A PUSH1 0x0 DUP4 PUSH2 0x111F JUMP JUMPDEST SWAP2 POP PUSH2 0x1145 DUP3 PUSH2 0x112A JUMP JUMPDEST PUSH1 0x0 DUP3 ADD SWAP1 POP SWAP2 SWAP1 POP JUMP JUMPDEST PUSH1 0x0 PUSH2 0x115B DUP3 PUSH2 0x112D JUMP JUMPDEST SWAP2 POP DUP2 SWAP1 POP SWAP2 SWAP1 POP JUMP JUMPDEST PUSH1 0x0 PUSH1 0x60 DUP3 ADD SWAP1 POP PUSH2 0x117A PUSH1 0x0 DUP4 ADD DUP7 PUSH2 0xB4C JUMP JUMPDEST PUSH2 0x1187 PUSH1 0x20 DUP4 ADD DUP6 PUSH2 0xB4C JUMP JUMPDEST PUSH2 0x1194 PUSH1 0x40 DUP4 ADD DUP5 PUSH2 0xB4C JUMP JUMPDEST SWAP5 SWAP4 POP POP POP POP JUMP JUMPDEST PUSH1 0x0 DUP2 SWAP1 POP SWAP2 SWAP1 POP JUMP JUMPDEST PUSH2 0x11AF DUP2 PUSH2 0x119C JUMP JUMPDEST DUP3 MSTORE POP POP JUMP JUMPDEST PUSH1 0x0 PUSH8 0xFFFFFFFFFFFFFFFF DUP3 AND SWAP1 POP SWAP2 SWAP1 POP JUMP JUMPDEST PUSH2 0x11D2 DUP2 PUSH2 0x11B5 JUMP JUMPDEST DUP3 MSTORE POP POP JUMP JUMPDEST PUSH1 0x0 PUSH2 0xFFFF DUP3 AND SWAP1 POP SWAP2 SWAP1 POP JUMP JUMPDEST PUSH2 0x11EF DUP2 PUSH2 0x11D8 JUMP JUMPDEST DUP3 MSTORE POP POP JUMP JUMPDEST PUSH1 0x0 PUSH4 0xFFFFFFFF DUP3 AND SWAP1 POP SWAP2 SWAP1 POP JUMP JUMPDEST PUSH2 0x120E DUP2 PUSH2 0x11F5 JUMP JUMPDEST DUP3 MSTORE POP POP JUMP JUMPDEST PUSH1 0x0 DUP2 SWAP1 POP SWAP2 SWAP1 POP JUMP JUMPDEST PUSH1 0x0 PUSH2 0x1239 PUSH2 0x1234 PUSH2 0x122F DUP5 PUSH2 0x11D8 JUMP JUMPDEST PUSH2 0x1214 JUMP JUMPDEST PUSH2 0x11F5 JUMP JUMPDEST SWAP1 POP SWAP2 SWAP1 POP JUMP JUMPDEST PUSH2 0x1249 DUP2 PUSH2 0x121E JUMP JUMPDEST DUP3 MSTORE POP POP JUMP JUMPDEST PUSH1 0x0 PUSH1 0xA0 DUP3 ADD SWAP1 POP PUSH2 0x1264 PUSH1 0x0 DUP4 ADD DUP9 PUSH2 0x11A6 JUMP JUMPDEST PUSH2 0x1271 PUSH1 0x20 DUP4 ADD DUP8 PUSH2 0x11C9 JUMP JUMPDEST PUSH2 0x127E PUSH1 0x40 DUP4 ADD DUP7 PUSH2 0x11E6 JUMP JUMPDEST PUSH2 0x128B PUSH1 0x60 DUP4 ADD DUP6 PUSH2 0x1205 JUMP JUMPDEST PUSH2 0x1298 PUSH1 0x80 DUP4 ADD DUP5 PUSH2 0x1240 JUMP JUMPDEST SWAP7 SWAP6 POP POP POP POP POP POP JUMP JUMPDEST PUSH1 0x0 DUP2 MLOAD SWAP1 POP PUSH2 0x12B1 DUP2 PUSH2 0xC1C JUMP JUMPDEST SWAP3 SWAP2 POP POP JUMP JUMPDEST PUSH1 0x0 PUSH1 0x20 DUP3 DUP5 SUB SLT ISZERO PUSH2 0x12CD JUMPI PUSH2 0x12CC PUSH2 0xC12 JUMP JUMPDEST JUMPDEST PUSH1 0x0 PUSH2 0x12DB DUP5 DUP3 DUP6 ADD PUSH2 0x12A2 JUMP JUMPDEST SWAP2 POP POP SWAP3 SWAP2 POP POP JUMP JUMPDEST PUSH32 0x4E487B7100000000000000000000000000000000000000000000000000000000 PUSH1 0x0 MSTORE PUSH1 0x11 PUSH1 0x4 MSTORE PUSH1 0x24 PUSH1 0x0 REVERT JUMPDEST PUSH1 0x0 PUSH2 0x131E DUP3 PUSH2 0xB42 JUMP JUMPDEST SWAP2 POP PUSH2 0x1329 DUP4 PUSH2 0xB42 JUMP JUMPDEST SWAP3 POP DUP3 DUP3 SUB SWAP1 POP DUP2 DUP2 GT ISZERO PUSH2 0x1341 JUMPI PUSH2 0x1340 PUSH2 0x12E4 JUMP JUMPDEST JUMPDEST SWAP3 SWAP2 POP POP JUMP JUMPDEST PUSH32 0x4E487B7100000000000000000000000000000000000000000000000000000000 PUSH1 0x0 MSTORE PUSH1 0x32 PUSH1 0x4 MSTORE PUSH1 0x24 PUSH1 0x0 REVERT JUMPDEST PUSH32 0x4E487B7100000000000000000000000000000000000000000000000000000000 PUSH1 0x0 MSTORE PUSH1 0x12 PUSH1 0x4 MSTORE PUSH1 0x24 PUSH1 0x0 REVERT JUMPDEST PUSH1 0x0 PUSH2 0x13B0 DUP3 PUSH2 0xB42 JUMP JUMPDEST SWAP2 POP PUSH2 0x13BB DUP4 PUSH2 0xB42 JUMP JUMPDEST SWAP3 POP DUP3 PUSH2 0x13CB JUMPI PUSH2 0x13CA PUSH2 0x1376 JUMP JUMPDEST JUMPDEST DUP3 DUP3 MOD SWAP1 POP SWAP3 SWAP2 POP POP JUMP JUMPDEST PUSH1 0x0 DUP2 SWAP1 POP SWAP3 SWAP2 POP POP JUMP JUMPDEST PUSH1 0x0 PUSH2 0x13EE PUSH1 0x0 DUP4 PUSH2 0x13D6 JUMP JUMPDEST SWAP2 POP PUSH2 0x13F9 DUP3 PUSH2 0x112A JUMP JUMPDEST PUSH1 0x0 DUP3 ADD SWAP1 POP SWAP2 SWAP1 POP JUMP JUMPDEST PUSH1 0x0 PUSH2 0x140F DUP3 PUSH2 0x13E1 JUMP JUMPDEST SWAP2 POP DUP2 SWAP1 POP SWAP2 SWAP1 POP JUMP INVALID LOG2 PUSH5 0x6970667358 0x22 SLT KECCAK256 PUSH23 0x50833DA5681C4DACE8227C77A119A895976DF7AD31B77A ISZERO 0xEB EXTCODECOPY POP DUP3 0xB4 0xE4 0xB5 PUSH5 0x736F6C6343 STOP ADDMOD XOR STOP CALLER "},"gasEstimates":{"creation":{"codeDepositCost":"1039800","executionCost":"infinite","totalCost":"infinite"},"external":{"checkUpkeep(bytes)":"infinite","enterRaffle()":"infinite","getEntranceFee()":"infinite","getLatestTimeStamp()":"2526","getNumWords()":"387","getNumberOfplayers()":"2556","getPlayer(uint256)":"5055","getRaffleState()":"2641","getRecentWinner()":"2544","getRequestConfimations()":"453","performUpkeep(bytes)":"infinite","rawFulfillRandomWords(uint256,uint256[])":"infinite"},"internal":{"fulfillRandomWords(uint256,uint256[] memory)":"infinite"}},"methodIdentifiers":{"checkUpkeep(bytes)":"6e04ff0d","enterRaffle()":"2cfcc539","getEntranceFee()":"09bc33a7","getLatestTimeStamp()":"320229eb","getNumWords()":"53a2c19a","getNumberOfplayers()":"3bc764db","getPlayer(uint256)":"e55ae4e8","getRaffleState()":"115cbaf5","getRecentWinner()":"473f1ddc","getRequestConfimations()":"ef277b72","performUpkeep(bytes)":"4585e33b","rawFulfillRandomWords(uint256,uint256[])":"1fe543e3"}},"storageLayout":{"storage":[{"astId":1390,"contract":"contracts/Lottery.sol:Raffle","label":"s_players","offset":0,"slot":"0","type":"t_array(t_address_payable)dyn_storage"},{"astId":1407,"contract":"contracts/Lottery.sol:Raffle","label":"s_recentWinner","offset":0,"slot":"1","type":"t_address"},{"astId":1410,"contract":"contracts/Lottery.sol:Raffle","label":"s_raffleState","offset":20,"slot":"1","type":"t_enum(RaffleState)1385"},{"astId":1412,"contract":"contracts/Lottery.sol:Raffle","label":"s_lastTimeStamp","offset":0,"slot":"2","type":"t_uint256"}],"types":{"t_address":{"encoding":"inplace","label":"address","numberOfBytes":"20"},"t_address_payable":{"encoding":"inplace","label":"address payable","numberOfBytes":"20"},"t_array(t_address_payable)dyn_storage":{"base":"t_address_payable","encoding":"dynamic_array","label":"address payable[]","numberOfBytes":"32"},"t_enum(RaffleState)1385":{"encoding":"inplace","label":"enum Raffle.RaffleState","numberOfBytes":"1"},"t_uint256":{"encoding":"inplace","label":"uint256","numberOfBytes":"32"}}},"userdoc":{"kind":"user","methods":{},"notice":"This contract is for creating an untamparable decentralized smart contract","version":1}}}}