{
  "_format": "hh-sol-artifact-1",
  "contractName": "Raffle",
  "sourceName": "contracts/Lottery.sol",
  "abi": [
    {
      "inputs": [
        {
          "internalType": "address",
          "name": "vrfCordinatorV2",
          "type": "address"
        },
        {
          "internalType": "uint256",
          "name": "entranceFee",
          "type": "uint256"
        },
        {
          "internalType": "bytes32",
          "name": "gasLane",
          "type": "bytes32"
        },
        {
          "internalType": "uint64",
          "name": "subscriptionId",
          "type": "uint64"
        },
        {
          "internalType": "uint256",
          "name": "interval",
          "type": "uint256"
        },
        {
          "internalType": "uint32",
          "name": "callbackGasLimit",
          "type": "uint32"
        }
      ],
      "stateMutability": "nonpayable",
      "type": "constructor"
    },
    {
      "inputs": [
        {
          "internalType": "uint256",
          "name": "currentBalance",
          "type": "uint256"
        },
        {
          "internalType": "uint256",
          "name": "numPlayers",
          "type": "uint256"
        },
        {
          "internalType": "uint256",
          "name": "raffleState",
          "type": "uint256"
        }
      ],
      "name": "Lottery_UpkeepNotNeeded",
      "type": "error"
    },
    {
      "inputs": [],
      "name": "Lottery__NotEnoughETHEntered",
      "type": "error"
    },
    {
      "inputs": [],
      "name": "Lottery__NotOpen",
      "type": "error"
    },
    {
      "inputs": [],
      "name": "Lottery__TransferFailed",
      "type": "error"
    },
    {
      "inputs": [
        {
          "internalType": "address",
          "name": "have",
          "type": "address"
        },
        {
          "internalType": "address",
          "name": "want",
          "type": "address"
        }
      ],
      "name": "OnlyCoordinatorCanFulfill",
      "type": "error"
    },
    {
      "anonymous": false,
      "inputs": [
        {
          "indexed": true,
          "internalType": "address",
          "name": "player",
          "type": "address"
        }
      ],
      "name": "LotteryEnter",
      "type": "event"
    },
    {
      "anonymous": false,
      "inputs": [
        {
          "indexed": true,
          "internalType": "address",
          "name": "participant",
          "type": "address"
        }
      ],
      "name": "RaffleEnter",
      "type": "event"
    },
    {
      "anonymous": false,
      "inputs": [
        {
          "indexed": true,
          "internalType": "uint256",
          "name": "requestId",
          "type": "uint256"
        }
      ],
      "name": "RequestedRaffleWinner",
      "type": "event"
    },
    {
      "anonymous": false,
      "inputs": [
        {
          "indexed": true,
          "internalType": "address",
          "name": "winner",
          "type": "address"
        }
      ],
      "name": "WinnerPicked",
      "type": "event"
    },
    {
      "inputs": [
        {
          "internalType": "bytes",
          "name": "",
          "type": "bytes"
        }
      ],
      "name": "checkUpkeep",
      "outputs": [
        {
          "internalType": "bool",
          "name": "upkeepNeeded",
          "type": "bool"
        },
        {
          "internalType": "bytes",
          "name": "",
          "type": "bytes"
        }
      ],
      "stateMutability": "view",
      "type": "function"
    },
    {
      "inputs": [],
      "name": "enterRaffle",
      "outputs": [],
      "stateMutability": "payable",
      "type": "function"
    },
    {
      "inputs": [],
      "name": "getEntranceFee",
      "outputs": [
        {
          "internalType": "uint256",
          "name": "",
          "type": "uint256"
        }
      ],
      "stateMutability": "view",
      "type": "function"
    },
    {
      "inputs": [],
      "name": "getLatestTimeStamp",
      "outputs": [
        {
          "internalType": "uint256",
          "name": "",
          "type": "uint256"
        }
      ],
      "stateMutability": "view",
      "type": "function"
    },
    {
      "inputs": [],
      "name": "getNumWords",
      "outputs": [
        {
          "internalType": "uint256",
          "name": "",
          "type": "uint256"
        }
      ],
      "stateMutability": "pure",
      "type": "function"
    },
    {
      "inputs": [],
      "name": "getNumberOfplayers",
      "outputs": [
        {
          "internalType": "uint256",
          "name": "",
          "type": "uint256"
        }
      ],
      "stateMutability": "view",
      "type": "function"
    },
    {
      "inputs": [
        {
          "internalType": "uint256",
          "name": "index",
          "type": "uint256"
        }
      ],
      "name": "getPlayer",
      "outputs": [
        {
          "internalType": "address",
          "name": "",
          "type": "address"
        }
      ],
      "stateMutability": "view",
      "type": "function"
    },
    {
      "inputs": [],
      "name": "getRaffleState",
      "outputs": [
        {
          "internalType": "enum Raffle.RaffleState",
          "name": "",
          "type": "uint8"
        }
      ],
      "stateMutability": "view",
      "type": "function"
    },
    {
      "inputs": [],
      "name": "getRecentWinner",
      "outputs": [
        {
          "internalType": "address",
          "name": "",
          "type": "address"
        }
      ],
      "stateMutability": "view",
      "type": "function"
    },
    {
      "inputs": [],
      "name": "getRequestConfimations",
      "outputs": [
        {
          "internalType": "uint256",
          "name": "",
          "type": "uint256"
        }
      ],
      "stateMutability": "pure",
      "type": "function"
    },
    {
      "inputs": [
        {
          "internalType": "bytes",
          "name": "",
          "type": "bytes"
        }
      ],
      "name": "performUpkeep",
      "outputs": [],
      "stateMutability": "nonpayable",
      "type": "function"
    },
    {
      "inputs": [
        {
          "internalType": "uint256",
          "name": "requestId",
          "type": "uint256"
        },
        {
          "internalType": "uint256[]",
          "name": "randomWords",
          "type": "uint256[]"
        }
      ],
      "name": "rawFulfillRandomWords",
      "outputs": [],
      "stateMutability": "nonpayable",
      "type": "function"
    }
  ],
  "bytecode": "0x6101606040523480156200001257600080fd5b506040516200181738038062001817833981810160405281019062000038919062000294565b858073ffffffffffffffffffffffffffffffffffffffff1660808173ffffffffffffffffffffffffffffffffffffffff1681525050508460a081815250508573ffffffffffffffffffffffffffffffffffffffff1660c08173ffffffffffffffffffffffffffffffffffffffff16815250508360e081815250508267ffffffffffffffff166101008167ffffffffffffffff16815250508063ffffffff166101208163ffffffff16815250506000600160146101000a81548160ff021916908360018111156200010d576200010c62000330565b5b0217905550426002819055508161014081815250505050505050506200035f565b600080fd5b600073ffffffffffffffffffffffffffffffffffffffff82169050919050565b6000620001608262000133565b9050919050565b620001728162000153565b81146200017e57600080fd5b50565b600081519050620001928162000167565b92915050565b6000819050919050565b620001ad8162000198565b8114620001b957600080fd5b50565b600081519050620001cd81620001a2565b92915050565b6000819050919050565b620001e881620001d3565b8114620001f457600080fd5b50565b6000815190506200020881620001dd565b92915050565b600067ffffffffffffffff82169050919050565b6200022d816200020e565b81146200023957600080fd5b50565b6000815190506200024d8162000222565b92915050565b600063ffffffff82169050919050565b6200026e8162000253565b81146200027a57600080fd5b50565b6000815190506200028e8162000263565b92915050565b60008060008060008060c08789031215620002b457620002b36200012e565b5b6000620002c489828a0162000181565b9650506020620002d789828a01620001bc565b9550506040620002ea89828a01620001f7565b9450506060620002fd89828a016200023c565b93505060806200031089828a01620001bc565b92505060a06200032389828a016200027d565b9150509295509295509295565b7f4e487b7100000000000000000000000000000000000000000000000000000000600052602160045260246000fd5b60805160a05160c05160e05161010051610120516101405161144f620003c860003960006107ac015260006106790152600061065601526000610635015260006105f90152600081816102b401526103b10152600081816102f10152610345015261144f6000f3fe6080604052600436106100a75760003560e01c80634585e33b116100645780634585e33b1461018b578063473f1ddc146101b457806353a2c19a146101df5780636e04ff0d1461020a578063e55ae4e814610248578063ef277b7214610285576100a7565b806309bc33a7146100ac578063115cbaf5146100d75780631fe543e3146101025780632cfcc5391461012b578063320229eb146101355780633bc764db14610160575b600080fd5b3480156100b857600080fd5b506100c16102b0565b6040516100ce9190610b5b565b60405180910390f35b3480156100e357600080fd5b506100ec6102d8565b6040516100f99190610bed565b60405180910390f35b34801561010e57600080fd5b5061012960048036038101906101249190610da1565b6102ef565b005b6101336103af565b005b34801561014157600080fd5b5061014a61051e565b6040516101579190610b5b565b60405180910390f35b34801561016c57600080fd5b50610175610528565b6040516101829190610b5b565b60405180910390f35b34801561019757600080fd5b506101b260048036038101906101ad9190610e58565b610534565b005b3480156101c057600080fd5b506101c9610732565b6040516101d69190610ee6565b60405180910390f35b3480156101eb57600080fd5b506101f461075c565b6040516102019190610b5b565b60405180910390f35b34801561021657600080fd5b50610231600480360381019061022c9190610fb6565b610769565b60405161023f929190611099565b60405180910390f35b34801561025457600080fd5b5061026f600480360381019061026a91906110c9565b610816565b60405161027c9190610ee6565b60405180910390f35b34801561029157600080fd5b5061029a61085d565b6040516102a79190610b5b565b60405180910390f35b60007f0000000000000000000000000000000000000000000000000000000000000000905090565b6000600160149054906101000a900460ff16905090565b7f000000000000000000000000000000000000000000000000000000000000000073ffffffffffffffffffffffffffffffffffffffff163373ffffffffffffffffffffffffffffffffffffffff16146103a157337f00000000000000000000000000000000000000000000000000000000000000006040517f1cf993f40000000000000000000000000000000000000000000000000000000081526004016103989291906110f6565b60405180910390fd5b6103ab828261086a565b5050565b7f0000000000000000000000000000000000000000000000000000000000000000341015610409576040517fec269fd100000000000000000000000000000000000000000000000000000000815260040160405180910390fd5b6000600181111561041d5761041c610b76565b5b600160149054906101000a900460ff16600181111561043f5761043e610b76565b5b14610476576040517fe76be6fc00000000000000000000000000000000000000000000000000000000815260040160405180910390fd5b6000339080600181540180825580915050600190039060005260206000200160009091909190916101000a81548173ffffffffffffffffffffffffffffffffffffffff021916908373ffffffffffffffffffffffffffffffffffffffff1602179055503373ffffffffffffffffffffffffffffffffffffffff167f0805e1d667bddb8a95f0f09880cf94f403fb596ce79928d9f29b74203ba284d460405160405180910390a2565b6000600254905090565b60008080549050905090565b600061055c60405160200161054890611150565b604051602081830303815290604052610769565b509050806105cb5747600080549050600160149054906101000a900460ff16600181111561058d5761058c610b76565b5b6040517f6f118e900000000000000000000000000000000000000000000000000000000081526004016105c293929190611165565b60405180910390fd5b60018060146101000a81548160ff021916908360018111156105f0576105ef610b76565b5b021790555060007f000000000000000000000000000000000000000000000000000000000000000073ffffffffffffffffffffffffffffffffffffffff16635d3b1d307f00000000000000000000000000000000000000000000000000000000000000007f000000000000000000000000000000000000000000000000000000000000000060037f000000000000000000000000000000000000000000000000000000000000000060036040518663ffffffff1660e01b81526004016106ba95949392919061124f565b6020604051808303816000875af11580156106d9573d6000803e3d6000fd5b505050506040513d601f19601f820116820180604052508101906106fd91906112b7565b9050807fcd6e45c8998311cab7e9d4385596cac867e20a0587194b954fa3a731c93ce78b60405160405180910390a250505050565b6000600160009054906101000a900473ffffffffffffffffffffffffffffffffffffffff16905090565b6000600361ffff16905090565b600060606000600160149054906101000a900460ff16600181111561079157610790610b76565b5b600060018111156107a5576107a4610b76565b5b14905060007f0000000000000000000000000000000000000000000000000000000000000000600254426107d99190611313565b119050600080600080549050119050600080471190508380156107f95750825b80156108025750815b801561080b5750805b955050505050915091565b600080828154811061082b5761082a611347565b5b9060005260206000200160009054906101000a900473ffffffffffffffffffffffffffffffffffffffff169050919050565b6000600361ffff16905090565b600080805490508260008151811061088557610884611347565b5b602002602001015161089791906113a5565b905060008082815481106108ae576108ad611347565b5b9060005260206000200160009054906101000a900473ffffffffffffffffffffffffffffffffffffffff16905080600160006101000a81548173ffffffffffffffffffffffffffffffffffffffff021916908373ffffffffffffffffffffffffffffffffffffffff1602179055506000600160146101000a81548160ff0219169083600181111561094257610941610b76565b5b0217905550600067ffffffffffffffff81111561096257610961610c5e565b5b6040519080825280602002602001820160405280156109905781602001602082028036833780820191505090505b50600090805190602001906109a6929190610a9b565b504260028190555060008173ffffffffffffffffffffffffffffffffffffffff16476040516109d490611404565b60006040518083038185875af1925050503d8060008114610a11576040519150601f19603f3d011682016040523d82523d6000602084013e610a16565b606091505b5050905080610a51576040517f1c94012000000000000000000000000000000000000000000000000000000000815260040160405180910390fd5b8173ffffffffffffffffffffffffffffffffffffffff167f5b690ec4a06fe979403046eaeea5b3ce38524683c3001f662c8b5a829632f7df60405160405180910390a25050505050565b828054828255906000526020600020908101928215610b14579160200282015b82811115610b135782518260006101000a81548173ffffffffffffffffffffffffffffffffffffffff021916908373ffffffffffffffffffffffffffffffffffffffff16021790555091602001919060010190610abb565b5b509050610b219190610b25565b5090565b5b80821115610b3e576000816000905550600101610b26565b5090565b6000819050919050565b610b5581610b42565b82525050565b6000602082019050610b706000830184610b4c565b92915050565b7f4e487b7100000000000000000000000000000000000000000000000000000000600052602160045260246000fd5b60028110610bb657610bb5610b76565b5b50565b6000819050610bc782610ba5565b919050565b6000610bd782610bb9565b9050919050565b610be781610bcc565b82525050565b6000602082019050610c026000830184610bde565b92915050565b6000604051905090565b600080fd5b600080fd5b610c2581610b42565b8114610c3057600080fd5b50565b600081359050610c4281610c1c565b92915050565b600080fd5b6000601f19601f8301169050919050565b7f4e487b7100000000000000000000000000000000000000000000000000000000600052604160045260246000fd5b610c9682610c4d565b810181811067ffffffffffffffff82111715610cb557610cb4610c5e565b5b80604052505050565b6000610cc8610c08565b9050610cd48282610c8d565b919050565b600067ffffffffffffffff821115610cf457610cf3610c5e565b5b602082029050602081019050919050565b600080fd5b6000610d1d610d1884610cd9565b610cbe565b90508083825260208201905060208402830185811115610d4057610d3f610d05565b5b835b81811015610d695780610d558882610c33565b845260208401935050602081019050610d42565b5050509392505050565b600082601f830112610d8857610d87610c48565b5b8135610d98848260208601610d0a565b91505092915050565b60008060408385031215610db857610db7610c12565b5b6000610dc685828601610c33565b925050602083013567ffffffffffffffff811115610de757610de6610c17565b5b610df385828601610d73565b9150509250929050565b600080fd5b60008083601f840112610e1857610e17610c48565b5b8235905067ffffffffffffffff811115610e3557610e34610dfd565b5b602083019150836001820283011115610e5157610e50610d05565b5b9250929050565b60008060208385031215610e6f57610e6e610c12565b5b600083013567ffffffffffffffff811115610e8d57610e8c610c17565b5b610e9985828601610e02565b92509250509250929050565b600073ffffffffffffffffffffffffffffffffffffffff82169050919050565b6000610ed082610ea5565b9050919050565b610ee081610ec5565b82525050565b6000602082019050610efb6000830184610ed7565b92915050565b600080fd5b600067ffffffffffffffff821115610f2157610f20610c5e565b5b610f2a82610c4d565b9050602081019050919050565b82818337600083830152505050565b6000610f59610f5484610f06565b610cbe565b905082815260208101848484011115610f7557610f74610f01565b5b610f80848285610f37565b509392505050565b600082601f830112610f9d57610f9c610c48565b5b8135610fad848260208601610f46565b91505092915050565b600060208284031215610fcc57610fcb610c12565b5b600082013567ffffffffffffffff811115610fea57610fe9610c17565b5b610ff684828501610f88565b91505092915050565b60008115159050919050565b61101481610fff565b82525050565b600081519050919050565b600082825260208201905092915050565b60005b83811015611054578082015181840152602081019050611039565b60008484015250505050565b600061106b8261101a565b6110758185611025565b9350611085818560208601611036565b61108e81610c4d565b840191505092915050565b60006040820190506110ae600083018561100b565b81810360208301526110c08184611060565b90509392505050565b6000602082840312156110df576110de610c12565b5b60006110ed84828501610c33565b91505092915050565b600060408201905061110b6000830185610ed7565b6111186020830184610ed7565b9392505050565b600081905092915050565b50565b600061113a60008361111f565b91506111458261112a565b600082019050919050565b600061115b8261112d565b9150819050919050565b600060608201905061117a6000830186610b4c565b6111876020830185610b4c565b6111946040830184610b4c565b949350505050565b6000819050919050565b6111af8161119c565b82525050565b600067ffffffffffffffff82169050919050565b6111d2816111b5565b82525050565b600061ffff82169050919050565b6111ef816111d8565b82525050565b600063ffffffff82169050919050565b61120e816111f5565b82525050565b6000819050919050565b600061123961123461122f846111d8565b611214565b6111f5565b9050919050565b6112498161121e565b82525050565b600060a08201905061126460008301886111a6565b61127160208301876111c9565b61127e60408301866111e6565b61128b6060830185611205565b6112986080830184611240565b9695505050505050565b6000815190506112b181610c1c565b92915050565b6000602082840312156112cd576112cc610c12565b5b60006112db848285016112a2565b91505092915050565b7f4e487b7100000000000000000000000000000000000000000000000000000000600052601160045260246000fd5b600061131e82610b42565b915061132983610b42565b9250828203905081811115611341576113406112e4565b5b92915050565b7f4e487b7100000000000000000000000000000000000000000000000000000000600052603260045260246000fd5b7f4e487b7100000000000000000000000000000000000000000000000000000000600052601260045260246000fd5b60006113b082610b42565b91506113bb83610b42565b9250826113cb576113ca611376565b5b828206905092915050565b600081905092915050565b60006113ee6000836113d6565b91506113f98261112a565b600082019050919050565b600061140f826113e1565b915081905091905056fea26469706673582212207650833da5681c4dace8227c77a119a895976df7ad31b77a15eb3c5082b4e4b564736f6c63430008180033",
  "linkReferences": {},
  "deployedLinkReferences": {}
}